{
  "contractName": "AccountRegistry",
  "abi": [
    {
      "constant": true,
      "inputs": [
        {
          "name": "",
          "type": "address"
        }
      ],
      "name": "accounts",
      "outputs": [
        {
          "name": "name",
          "type": "string"
        },
        {
          "name": "ipfsHash",
          "type": "string"
        },
        {
          "name": "createdAt",
          "type": "uint256"
        }
      ],
      "payable": false,
      "stateMutability": "view",
      "type": "function"
    },
    {
      "constant": true,
      "inputs": [],
      "name": "getSenderAccountIpfsHash",
      "outputs": [
        {
          "name": "",
          "type": "string"
        }
      ],
      "payable": false,
      "stateMutability": "view",
      "type": "function"
    },
    {
      "constant": false,
      "inputs": [
        {
          "name": "name",
          "type": "string"
        },
        {
          "name": "ipfsHash",
          "type": "string"
        }
      ],
      "name": "registerAccount",
      "outputs": [
        {
          "name": "",
          "type": "bool"
        }
      ],
      "payable": false,
      "stateMutability": "nonpayable",
      "type": "function"
    }
  ],
  "bytecode": "0x6060604052341561000f57600080fd5b6105ad8061001e6000396000f300606060405260043610610057576000357c0100000000000000000000000000000000000000000000000000000000900463ffffffff1680635e5c06e21461005c57806373fba1ef146101bb578063ddc7b6a714610249575b600080fd5b341561006757600080fd5b610093600480803573ffffffffffffffffffffffffffffffffffffffff16906020019091905050610301565b6040518080602001806020018481526020018381038352868181546001816001161561010002031660029004815260200191508054600181600116156101000203166002900480156101265780601f106100fb57610100808354040283529160200191610126565b820191906000526020600020905b81548152906001019060200180831161010957829003601f168201915b50508381038252858181546001816001161561010002031660029004815260200191508054600181600116156101000203166002900480156101a95780601f1061017e576101008083540402835291602001916101a9565b820191906000526020600020905b81548152906001019060200180831161018c57829003601f168201915b50509550505050505060405180910390f35b34156101c657600080fd5b6101ce610329565b6040518080602001828103825283818151815260200191508051906020019080838360005b8381101561020e5780820151818401526020810190506101f3565b50505050905090810190601f16801561023b5780820380516001836020036101000a031916815260200191505b509250505060405180910390f35b341561025457600080fd5b6102e7600480803590602001908201803590602001908080601f0160208091040260200160405190810160405280939291908181526020018383808284378201915050505050509190803590602001908201803590602001908080601f01602080910402602001604051908101604052809392919081815260200183838082843782019150505050505091905050610410565b604051808215151515815260200191505060405180910390f35b6000602052806000526040600020600091509050806000019080600101908060020154905083565b6103316104c8565b6000803373ffffffffffffffffffffffffffffffffffffffff1673ffffffffffffffffffffffffffffffffffffffff1681526020019081526020016000206001018054600181600116156101000203166002900480601f0160208091040260200160405190810160405280929190818152602001828054600181600116156101000203166002900480156104065780601f106103db57610100808354040283529160200191610406565b820191906000526020600020905b8154815290600101906020018083116103e957829003601f168201915b5050505050905090565b6000826000803373ffffffffffffffffffffffffffffffffffffffff1673ffffffffffffffffffffffffffffffffffffffff16815260200190815260200160002060000190805190602001906104679291906104dc565b50816000803373ffffffffffffffffffffffffffffffffffffffff1673ffffffffffffffffffffffffffffffffffffffff16815260200190815260200160002060010190805190602001906104bd9291906104dc565b506001905092915050565b602060405190810160405280600081525090565b828054600181600116156101000203166002900490600052602060002090601f016020900481019282601f1061051d57805160ff191683800117855561054b565b8280016001018555821561054b579182015b8281111561054a57825182559160200191906001019061052f565b5b509050610558919061055c565b5090565b61057e91905b8082111561057a576000816000905550600101610562565b5090565b905600a165627a7a72305820cc724c49f887ebf59b45bd22622ac5d371140accc0a5b468f7ccede899b9603f0029",
  "source": "pragma solidity ^0.4.13;\n\ncontract AccountRegistry {\n\t\n\tstruct Account {\n\t\tstring name;\n\t\tstring ipfsHash;\n\t\tuint createdAt;\n  }\n\t\n\tmapping(address => Account) public accounts;\n\t\n\tfunction getSenderAccountIpfsHash() public constant returns (string) {\n\t\treturn accounts[msg.sender].ipfsHash;\n\t}\n\n\tfunction registerAccount(string name, string ipfsHash) public returns (bool) {\n\t\taccounts[msg.sender].name = name;\n\t\taccounts[msg.sender].ipfsHash = ipfsHash;\n\t\treturn true;\n\t}\n\t\n}",
  "sourcePath": "/Users/luffy/Development/Workspace/ping-contracts/contracts/registries/AccountRegistry.sol",
  "compiler": {
    "name": "solc",
    "version": "0.4.18+commit.9cf6e910.Emscripten.clang"
  },
  "schemaVersion": "1.0.1",
  "updatedAt": "2017-12-19T20:35:11.760Z"
}